{
	"contracts/GlobalVars.sol": {
		"GlobalVariables": {
			"abi": [
				{
					"inputs": [],
					"name": "globalVars",
					"outputs": [
						{
							"internalType": "address",
							"name": "",
							"type": "address"
						},
						{
							"internalType": "uint256",
							"name": "",
							"type": "uint256"
						},
						{
							"internalType": "uint256",
							"name": "",
							"type": "uint256"
						}
					],
					"stateMutability": "view",
					"type": "function"
				},
				{
					"inputs": [],
					"name": "globalVars2",
					"outputs": [
						{
							"internalType": "address",
							"name": "",
							"type": "address"
						},
						{
							"internalType": "uint256",
							"name": "",
							"type": "uint256"
						},
						{
							"internalType": "uint256",
							"name": "",
							"type": "uint256"
						}
					],
					"stateMutability": "view",
					"type": "function"
				},
				{
					"inputs": [],
					"name": "globalVars3",
					"outputs": [
						{
							"internalType": "address",
							"name": "",
							"type": "address"
						},
						{
							"internalType": "uint256",
							"name": "",
							"type": "uint256"
						},
						{
							"internalType": "uint256",
							"name": "",
							"type": "uint256"
						}
					],
					"stateMutability": "view",
					"type": "function"
				}
			],
			"devdoc": {
				"kind": "dev",
				"methods": {},
				"version": 1
			},
			"evm": {
				"assembly": "    /* \"contracts/GlobalVars.sol\":65:889  contract GlobalVariables {... */\n  mstore(0x40, 0x80)\n  callvalue\n  dup1\n  iszero\n  tag_1\n  jumpi\n  0x00\n  dup1\n  revert\ntag_1:\n  pop\n  dataSize(sub_0)\n  dup1\n  dataOffset(sub_0)\n  0x00\n  codecopy\n  0x00\n  return\nstop\n\nsub_0: assembly {\n        /* \"contracts/GlobalVars.sol\":65:889  contract GlobalVariables {... */\n      mstore(0x40, 0x80)\n      callvalue\n      dup1\n      iszero\n      tag_1\n      jumpi\n      0x00\n      dup1\n      revert\n    tag_1:\n      pop\n      jumpi(tag_2, lt(calldatasize, 0x04))\n      shr(0xe0, calldataload(0x00))\n      dup1\n      0x7e6230f3\n      eq\n      tag_3\n      jumpi\n      dup1\n      0xfe25dec4\n      eq\n      tag_4\n      jumpi\n      dup1\n      0xffab69b5\n      eq\n      tag_5\n      jumpi\n    tag_2:\n      0x00\n      dup1\n      revert\n        /* \"contracts/GlobalVars.sol\":97:338  function globalVars() external view returns (address, uint, uint) {... */\n    tag_3:\n      tag_6\n      tag_7\n      jump\t// in\n    tag_6:\n      mload(0x40)\n      tag_8\n      swap4\n      swap3\n      swap2\n      swap1\n      tag_9\n      jump\t// in\n    tag_8:\n      mload(0x40)\n      dup1\n      swap2\n      sub\n      swap1\n      return\n        /* \"contracts/GlobalVars.sol\":350:620  function globalVars2() external view returns (address, uint, uint) {... */\n    tag_4:\n      tag_10\n      tag_11\n      jump\t// in\n    tag_10:\n      mload(0x40)\n      tag_12\n      swap4\n      swap3\n      swap2\n      swap1\n      tag_9\n      jump\t// in\n    tag_12:\n      mload(0x40)\n      dup1\n      swap2\n      sub\n      swap1\n      return\n        /* \"contracts/GlobalVars.sol\":632:886  function globalVars3() external view returns (address, uint, uint) {... */\n    tag_5:\n      tag_13\n      tag_14\n      jump\t// in\n    tag_13:\n      mload(0x40)\n      tag_15\n      swap4\n      swap3\n      swap2\n      swap1\n      tag_9\n      jump\t// in\n    tag_15:\n      mload(0x40)\n      dup1\n      swap2\n      sub\n      swap1\n      return\n        /* \"contracts/GlobalVars.sol\":97:338  function globalVars() external view returns (address, uint, uint) {... */\n    tag_7:\n        /* \"contracts/GlobalVars.sol\":142:149  address */\n      0x00\n        /* \"contracts/GlobalVars.sol\":151:155  uint */\n      dup1\n        /* \"contracts/GlobalVars.sol\":157:161  uint */\n      0x00\n        /* \"contracts/GlobalVars.sol\":174:188  address sender */\n      dup1\n        /* \"contracts/GlobalVars.sol\":191:201  msg.sender */\n      caller\n        /* \"contracts/GlobalVars.sol\":174:201  address sender = msg.sender */\n      swap1\n      pop\n        /* \"contracts/GlobalVars.sol\":212:226  uint timestamp */\n      0x00\n        /* \"contracts/GlobalVars.sol\":229:244  block.timestamp */\n      timestamp\n        /* \"contracts/GlobalVars.sol\":212:244  uint timestamp = block.timestamp */\n      swap1\n      pop\n        /* \"contracts/GlobalVars.sol\":255:268  uint blockNum */\n      0x00\n        /* \"contracts/GlobalVars.sol\":271:283  block.number */\n      number\n        /* \"contracts/GlobalVars.sol\":255:283  uint blockNum = block.number */\n      swap1\n      pop\n        /* \"contracts/GlobalVars.sol\":302:308  sender */\n      dup3\n        /* \"contracts/GlobalVars.sol\":310:319  timestamp */\n      dup3\n        /* \"contracts/GlobalVars.sol\":321:329  blockNum */\n      dup3\n        /* \"contracts/GlobalVars.sol\":294:330  return (sender, timestamp, blockNum) */\n      swap6\n      pop\n      swap6\n      pop\n      swap6\n      pop\n      pop\n      pop\n      pop\n        /* \"contracts/GlobalVars.sol\":97:338  function globalVars() external view returns (address, uint, uint) {... */\n      swap1\n      swap2\n      swap3\n      jump\t// out\n        /* \"contracts/GlobalVars.sol\":350:620  function globalVars2() external view returns (address, uint, uint) {... */\n    tag_11:\n        /* \"contracts/GlobalVars.sol\":396:403  address */\n      0x00\n        /* \"contracts/GlobalVars.sol\":405:409  uint */\n      dup1\n        /* \"contracts/GlobalVars.sol\":411:415  uint */\n      0x00\n        /* \"contracts/GlobalVars.sol\":428:455  address HolyAngelUniversity */\n      dup1\n        /* \"contracts/GlobalVars.sol\":458:468  msg.sender */\n      caller\n        /* \"contracts/GlobalVars.sol\":428:468  address HolyAngelUniversity = msg.sender */\n      swap1\n      pop\n        /* \"contracts/GlobalVars.sol\":479:493  uint TimeLimit */\n      0x00\n        /* \"contracts/GlobalVars.sol\":496:511  block.timestamp */\n      timestamp\n        /* \"contracts/GlobalVars.sol\":479:511  uint TimeLimit = block.timestamp */\n      swap1\n      pop\n        /* \"contracts/GlobalVars.sol\":522:536  uint NewNumber */\n      0x00\n        /* \"contracts/GlobalVars.sol\":539:551  block.number */\n      number\n        /* \"contracts/GlobalVars.sol\":522:551  uint NewNumber = block.number */\n      swap1\n      pop\n        /* \"contracts/GlobalVars.sol\":570:589  HolyAngelUniversity */\n      dup3\n        /* \"contracts/GlobalVars.sol\":591:600  TimeLimit */\n      dup3\n        /* \"contracts/GlobalVars.sol\":602:611  NewNumber */\n      dup3\n        /* \"contracts/GlobalVars.sol\":562:612  return (HolyAngelUniversity, TimeLimit, NewNumber) */\n      swap6\n      pop\n      swap6\n      pop\n      swap6\n      pop\n      pop\n      pop\n      pop\n        /* \"contracts/GlobalVars.sol\":350:620  function globalVars2() external view returns (address, uint, uint) {... */\n      swap1\n      swap2\n      swap3\n      jump\t// out\n        /* \"contracts/GlobalVars.sol\":632:886  function globalVars3() external view returns (address, uint, uint) {... */\n    tag_14:\n        /* \"contracts/GlobalVars.sol\":678:685  address */\n      0x00\n        /* \"contracts/GlobalVars.sol\":687:691  uint */\n      dup1\n        /* \"contracts/GlobalVars.sol\":693:697  uint */\n      0x00\n        /* \"contracts/GlobalVars.sol\":710:729  address AngelesCity */\n      dup1\n        /* \"contracts/GlobalVars.sol\":732:742  msg.sender */\n      caller\n        /* \"contracts/GlobalVars.sol\":710:742  address AngelesCity = msg.sender */\n      swap1\n      pop\n        /* \"contracts/GlobalVars.sol\":753:767  uint TimeInput */\n      0x00\n        /* \"contracts/GlobalVars.sol\":770:785  block.timestamp */\n      timestamp\n        /* \"contracts/GlobalVars.sol\":753:785  uint TimeInput = block.timestamp */\n      swap1\n      pop\n        /* \"contracts/GlobalVars.sol\":796:810  uint NumberNum */\n      0x00\n        /* \"contracts/GlobalVars.sol\":813:825  block.number */\n      number\n        /* \"contracts/GlobalVars.sol\":796:825  uint NumberNum = block.number */\n      swap1\n      pop\n        /* \"contracts/GlobalVars.sol\":844:855  AngelesCity */\n      dup3\n        /* \"contracts/GlobalVars.sol\":857:866  TimeInput */\n      dup3\n        /* \"contracts/GlobalVars.sol\":868:877  NumberNum */\n      dup3\n        /* \"contracts/GlobalVars.sol\":836:878  return (AngelesCity, TimeInput, NumberNum) */\n      swap6\n      pop\n      swap6\n      pop\n      swap6\n      pop\n      pop\n      pop\n      pop\n        /* \"contracts/GlobalVars.sol\":632:886  function globalVars3() external view returns (address, uint, uint) {... */\n      swap1\n      swap2\n      swap3\n      jump\t// out\n        /* \"#utility.yul\":7:133   */\n    tag_19:\n        /* \"#utility.yul\":44:51   */\n      0x00\n        /* \"#utility.yul\":84:126   */\n      0xffffffffffffffffffffffffffffffffffffffff\n        /* \"#utility.yul\":77:82   */\n      dup3\n        /* \"#utility.yul\":73:127   */\n      and\n        /* \"#utility.yul\":62:127   */\n      swap1\n      pop\n        /* \"#utility.yul\":7:133   */\n      swap2\n      swap1\n      pop\n      jump\t// out\n        /* \"#utility.yul\":139:235   */\n    tag_20:\n        /* \"#utility.yul\":176:183   */\n      0x00\n        /* \"#utility.yul\":205:229   */\n      tag_27\n        /* \"#utility.yul\":223:228   */\n      dup3\n        /* \"#utility.yul\":205:229   */\n      tag_19\n      jump\t// in\n    tag_27:\n        /* \"#utility.yul\":194:229   */\n      swap1\n      pop\n        /* \"#utility.yul\":139:235   */\n      swap2\n      swap1\n      pop\n      jump\t// out\n        /* \"#utility.yul\":241:359   */\n    tag_21:\n        /* \"#utility.yul\":328:352   */\n      tag_29\n        /* \"#utility.yul\":346:351   */\n      dup2\n        /* \"#utility.yul\":328:352   */\n      tag_20\n      jump\t// in\n    tag_29:\n        /* \"#utility.yul\":323:326   */\n      dup3\n        /* \"#utility.yul\":316:353   */\n      mstore\n        /* \"#utility.yul\":241:359   */\n      pop\n      pop\n      jump\t// out\n        /* \"#utility.yul\":365:442   */\n    tag_22:\n        /* \"#utility.yul\":402:409   */\n      0x00\n        /* \"#utility.yul\":431:436   */\n      dup2\n        /* \"#utility.yul\":420:436   */\n      swap1\n      pop\n        /* \"#utility.yul\":365:442   */\n      swap2\n      swap1\n      pop\n      jump\t// out\n        /* \"#utility.yul\":448:566   */\n    tag_23:\n        /* \"#utility.yul\":535:559   */\n      tag_32\n        /* \"#utility.yul\":553:558   */\n      dup2\n        /* \"#utility.yul\":535:559   */\n      tag_22\n      jump\t// in\n    tag_32:\n        /* \"#utility.yul\":530:533   */\n      dup3\n        /* \"#utility.yul\":523:560   */\n      mstore\n        /* \"#utility.yul\":448:566   */\n      pop\n      pop\n      jump\t// out\n        /* \"#utility.yul\":572:1014   */\n    tag_9:\n        /* \"#utility.yul\":721:725   */\n      0x00\n        /* \"#utility.yul\":759:761   */\n      0x60\n        /* \"#utility.yul\":748:757   */\n      dup3\n        /* \"#utility.yul\":744:762   */\n      add\n        /* \"#utility.yul\":736:762   */\n      swap1\n      pop\n        /* \"#utility.yul\":772:843   */\n      tag_34\n        /* \"#utility.yul\":840:841   */\n      0x00\n        /* \"#utility.yul\":829:838   */\n      dup4\n        /* \"#utility.yul\":825:842   */\n      add\n        /* \"#utility.yul\":816:822   */\n      dup7\n        /* \"#utility.yul\":772:843   */\n      tag_21\n      jump\t// in\n    tag_34:\n        /* \"#utility.yul\":853:925   */\n      tag_35\n        /* \"#utility.yul\":921:923   */\n      0x20\n        /* \"#utility.yul\":910:919   */\n      dup4\n        /* \"#utility.yul\":906:924   */\n      add\n        /* \"#utility.yul\":897:903   */\n      dup6\n        /* \"#utility.yul\":853:925   */\n      tag_23\n      jump\t// in\n    tag_35:\n        /* \"#utility.yul\":935:1007   */\n      tag_36\n        /* \"#utility.yul\":1003:1005   */\n      0x40\n        /* \"#utility.yul\":992:1001   */\n      dup4\n        /* \"#utility.yul\":988:1006   */\n      add\n        /* \"#utility.yul\":979:985   */\n      dup5\n        /* \"#utility.yul\":935:1007   */\n      tag_23\n      jump\t// in\n    tag_36:\n        /* \"#utility.yul\":572:1014   */\n      swap5\n      swap4\n      pop\n      pop\n      pop\n      pop\n      jump\t// out\n\n    auxdata: 0xa264697066735822122085aedae6969b07ebbfd7d18ad7357994c1d354a4a88e1a144416c11fd88b8ba864736f6c63430008180033\n}\n",
				"bytecode": {
					"linkReferences": {},
					"object": "608060405234801561000f575f80fd5b506101c58061001d5f395ff3fe608060405234801561000f575f80fd5b506004361061003f575f3560e01c80637e6230f314610043578063fe25dec414610063578063ffab69b514610083575b5f80fd5b61004b6100a3565b60405161005a9392919061015a565b60405180910390f35b61006b6100c3565b60405161007a9392919061015a565b60405180910390f35b61008b6100e3565b60405161009a9392919061015a565b60405180910390f35b5f805f803390505f4290505f439050828282955095509550505050909192565b5f805f803390505f4290505f439050828282955095509550505050909192565b5f805f803390505f4290505f439050828282955095509550505050909192565b5f73ffffffffffffffffffffffffffffffffffffffff82169050919050565b5f61012c82610103565b9050919050565b61013c81610122565b82525050565b5f819050919050565b61015481610142565b82525050565b5f60608201905061016d5f830186610133565b61017a602083018561014b565b610187604083018461014b565b94935050505056fea264697066735822122085aedae6969b07ebbfd7d18ad7357994c1d354a4a88e1a144416c11fd88b8ba864736f6c63430008180033",
					"opcodes": "PUSH1 0x80 PUSH1 0x40 MSTORE CALLVALUE DUP1 ISZERO PUSH2 0xF JUMPI PUSH0 DUP1 REVERT JUMPDEST POP PUSH2 0x1C5 DUP1 PUSH2 0x1D PUSH0 CODECOPY PUSH0 RETURN INVALID PUSH1 0x80 PUSH1 0x40 MSTORE CALLVALUE DUP1 ISZERO PUSH2 0xF JUMPI PUSH0 DUP1 REVERT JUMPDEST POP PUSH1 0x4 CALLDATASIZE LT PUSH2 0x3F JUMPI PUSH0 CALLDATALOAD PUSH1 0xE0 SHR DUP1 PUSH4 0x7E6230F3 EQ PUSH2 0x43 JUMPI DUP1 PUSH4 0xFE25DEC4 EQ PUSH2 0x63 JUMPI DUP1 PUSH4 0xFFAB69B5 EQ PUSH2 0x83 JUMPI JUMPDEST PUSH0 DUP1 REVERT JUMPDEST PUSH2 0x4B PUSH2 0xA3 JUMP JUMPDEST PUSH1 0x40 MLOAD PUSH2 0x5A SWAP4 SWAP3 SWAP2 SWAP1 PUSH2 0x15A JUMP JUMPDEST PUSH1 0x40 MLOAD DUP1 SWAP2 SUB SWAP1 RETURN JUMPDEST PUSH2 0x6B PUSH2 0xC3 JUMP JUMPDEST PUSH1 0x40 MLOAD PUSH2 0x7A SWAP4 SWAP3 SWAP2 SWAP1 PUSH2 0x15A JUMP JUMPDEST PUSH1 0x40 MLOAD DUP1 SWAP2 SUB SWAP1 RETURN JUMPDEST PUSH2 0x8B PUSH2 0xE3 JUMP JUMPDEST PUSH1 0x40 MLOAD PUSH2 0x9A SWAP4 SWAP3 SWAP2 SWAP1 PUSH2 0x15A JUMP JUMPDEST PUSH1 0x40 MLOAD DUP1 SWAP2 SUB SWAP1 RETURN JUMPDEST PUSH0 DUP1 PUSH0 DUP1 CALLER SWAP1 POP PUSH0 TIMESTAMP SWAP1 POP PUSH0 NUMBER SWAP1 POP DUP3 DUP3 DUP3 SWAP6 POP SWAP6 POP SWAP6 POP POP POP POP SWAP1 SWAP2 SWAP3 JUMP JUMPDEST PUSH0 DUP1 PUSH0 DUP1 CALLER SWAP1 POP PUSH0 TIMESTAMP SWAP1 POP PUSH0 NUMBER SWAP1 POP DUP3 DUP3 DUP3 SWAP6 POP SWAP6 POP SWAP6 POP POP POP POP SWAP1 SWAP2 SWAP3 JUMP JUMPDEST PUSH0 DUP1 PUSH0 DUP1 CALLER SWAP1 POP PUSH0 TIMESTAMP SWAP1 POP PUSH0 NUMBER SWAP1 POP DUP3 DUP3 DUP3 SWAP6 POP SWAP6 POP SWAP6 POP POP POP POP SWAP1 SWAP2 SWAP3 JUMP JUMPDEST PUSH0 PUSH20 0xFFFFFFFFFFFFFFFFFFFFFFFFFFFFFFFFFFFFFFFF DUP3 AND SWAP1 POP SWAP2 SWAP1 POP JUMP JUMPDEST PUSH0 PUSH2 0x12C DUP3 PUSH2 0x103 JUMP JUMPDEST SWAP1 POP SWAP2 SWAP1 POP JUMP JUMPDEST PUSH2 0x13C DUP2 PUSH2 0x122 JUMP JUMPDEST DUP3 MSTORE POP POP JUMP JUMPDEST PUSH0 DUP2 SWAP1 POP SWAP2 SWAP1 POP JUMP JUMPDEST PUSH2 0x154 DUP2 PUSH2 0x142 JUMP JUMPDEST DUP3 MSTORE POP POP JUMP JUMPDEST PUSH0 PUSH1 0x60 DUP3 ADD SWAP1 POP PUSH2 0x16D PUSH0 DUP4 ADD DUP7 PUSH2 0x133 JUMP JUMPDEST PUSH2 0x17A PUSH1 0x20 DUP4 ADD DUP6 PUSH2 0x14B JUMP JUMPDEST PUSH2 0x187 PUSH1 0x40 DUP4 ADD DUP5 PUSH2 0x14B JUMP JUMPDEST SWAP5 SWAP4 POP POP POP POP JUMP INVALID LOG2 PUSH5 0x6970667358 0x22 SLT KECCAK256 DUP6 0xAE 0xDA 0xE6 SWAP7 SWAP12 SMOD 0xEB 0xBF 0xD7 0xD1 DUP11 0xD7 CALLDATALOAD PUSH26 0x94C1D354A4A88E1A144416C11FD88B8BA864736F6C6343000818 STOP CALLER "
				},
				"gasEstimates": {
					"creation": {
						"codeDepositCost": "90600",
						"executionCost": "139",
						"totalCost": "90739"
					},
					"external": {
						"globalVars()": "infinite",
						"globalVars2()": "infinite",
						"globalVars3()": "infinite"
					}
				},
				"methodIdentifiers": {
					"globalVars()": "7e6230f3",
					"globalVars2()": "fe25dec4",
					"globalVars3()": "ffab69b5"
				}
			},
			"storageLayout": {
				"storage": [],
				"types": null
			},
			"userdoc": {
				"kind": "user",
				"methods": {},
				"version": 1
			}
		}
	}
}